{
  "_format": "hh-sol-artifact-1",
  "contractName": "June",
  "sourceName": "contracts/June.sol",
  "abi": [
    {
      "inputs": [
        {
          "internalType": "uint256",
          "name": "_id",
          "type": "uint256"
        }
      ],
      "name": "approveRecommendation",
      "outputs": [],
      "stateMutability": "nonpayable",
      "type": "function"
    },
    {
      "inputs": [
        {
          "internalType": "uint256",
          "name": "_id",
          "type": "uint256"
        }
      ],
      "name": "getStudentDetails",
      "outputs": [
        {
          "internalType": "string",
          "name": "",
          "type": "string"
        },
        {
          "internalType": "string",
          "name": "",
          "type": "string"
        },
        {
          "internalType": "string",
          "name": "",
          "type": "string"
        },
        {
          "internalType": "bool",
          "name": "",
          "type": "bool"
        }
      ],
      "stateMutability": "view",
      "type": "function"
    },
    {
      "inputs": [
        {
          "internalType": "string",
          "name": "_name",
          "type": "string"
        },
        {
          "internalType": "string",
          "name": "_university",
          "type": "string"
        },
        {
          "internalType": "string",
          "name": "_program",
          "type": "string"
        }
      ],
      "name": "requestRecommendation",
      "outputs": [
        {
          "internalType": "uint256",
          "name": "",
          "type": "uint256"
        }
      ],
      "stateMutability": "nonpayable",
      "type": "function"
    },
    {
      "inputs": [],
      "name": "studentCount",
      "outputs": [
        {
          "internalType": "uint256",
          "name": "",
          "type": "uint256"
        }
      ],
      "stateMutability": "view",
      "type": "function"
    },
    {
      "inputs": [
        {
          "internalType": "uint256",
          "name": "",
          "type": "uint256"
        }
      ],
      "name": "students",
      "outputs": [
        {
          "internalType": "string",
          "name": "name",
          "type": "string"
        },
        {
          "internalType": "string",
          "name": "university",
          "type": "string"
        },
        {
          "internalType": "string",
          "name": "program",
          "type": "string"
        },
        {
          "internalType": "bool",
          "name": "approved",
          "type": "bool"
        }
      ],
      "stateMutability": "view",
      "type": "function"
    }
  ],
  "bytecode": "0x608060405234801561001057600080fd5b50610df2806100206000396000f3fe608060405234801561001057600080fd5b50600436106100575760003560e01c806306ead22e1461005c5780634bb553101461008f578063519e2fd4146100ab57806386a9b364146100db578063e581f9ee1461010e575b600080fd5b610076600480360381019061007191906106c3565b61012c565b604051610086949392919061079b565b60405180910390f35b6100a960048036038101906100a491906106c3565b610301565b005b6100c560048036038101906100c0919061092a565b610395565b6040516100d291906109e0565b60405180910390f35b6100f560048036038101906100f091906106c3565b610457565b604051610105949392919061079b565b60405180910390f35b610116610673565b60405161012391906109e0565b60405180910390f35b600060205280600052604060002060009150905080600001805461014f90610a2a565b80601f016020809104026020016040519081016040528092919081815260200182805461017b90610a2a565b80156101c85780601f1061019d576101008083540402835291602001916101c8565b820191906000526020600020905b8154815290600101906020018083116101ab57829003601f168201915b5050505050908060010180546101dd90610a2a565b80601f016020809104026020016040519081016040528092919081815260200182805461020990610a2a565b80156102565780601f1061022b57610100808354040283529160200191610256565b820191906000526020600020905b81548152906001019060200180831161023957829003601f168201915b50505050509080600201805461026b90610a2a565b80601f016020809104026020016040519081016040528092919081815260200182805461029790610a2a565b80156102e45780601f106102b9576101008083540402835291602001916102e4565b820191906000526020600020905b8154815290600101906020018083116102c757829003601f168201915b5050505050908060030160009054906101000a900460ff16905084565b60008082815260200190815260200160002060030160009054906101000a900460ff1615610364576040517f08c379a000000000000000000000000000000000000000000000000000000000815260040161035b90610aa7565b60405180910390fd5b600160008083815260200190815260200160002060030160006101000a81548160ff02191690831515021790555050565b600080600160008154809291906103ab90610af6565b91905055905060405180608001604052808681526020018581526020018481526020016000151581525060008083815260200190815260200160002060008201518160000190816103fc9190610cea565b5060208201518160010190816104129190610cea565b5060408201518160020190816104289190610cea565b5060608201518160030160006101000a81548160ff021916908315150217905550905050809150509392505050565b6060806060600080600086815260200190815260200160002060000160008087815260200190815260200160002060010160008088815260200190815260200160002060020160008089815260200190815260200160002060030160009054906101000a900460ff168380546104cc90610a2a565b80601f01602080910402602001604051908101604052809291908181526020018280546104f890610a2a565b80156105455780601f1061051a57610100808354040283529160200191610545565b820191906000526020600020905b81548152906001019060200180831161052857829003601f168201915b5050505050935082805461055890610a2a565b80601f016020809104026020016040519081016040528092919081815260200182805461058490610a2a565b80156105d15780601f106105a6576101008083540402835291602001916105d1565b820191906000526020600020905b8154815290600101906020018083116105b457829003601f168201915b505050505092508180546105e490610a2a565b80601f016020809104026020016040519081016040528092919081815260200182805461061090610a2a565b801561065d5780601f106106325761010080835404028352916020019161065d565b820191906000526020600020905b81548152906001019060200180831161064057829003601f168201915b5050505050915093509350935093509193509193565b60015481565b6000604051905090565b600080fd5b600080fd5b6000819050919050565b6106a08161068d565b81146106ab57600080fd5b50565b6000813590506106bd81610697565b92915050565b6000602082840312156106d9576106d8610683565b5b60006106e7848285016106ae565b91505092915050565b600081519050919050565b600082825260208201905092915050565b60005b8381101561072a57808201518184015260208101905061070f565b60008484015250505050565b6000601f19601f8301169050919050565b6000610752826106f0565b61075c81856106fb565b935061076c81856020860161070c565b61077581610736565b840191505092915050565b60008115159050919050565b61079581610780565b82525050565b600060808201905081810360008301526107b58187610747565b905081810360208301526107c98186610747565b905081810360408301526107dd8185610747565b90506107ec606083018461078c565b95945050505050565b600080fd5b600080fd5b7f4e487b7100000000000000000000000000000000000000000000000000000000600052604160045260246000fd5b61083782610736565b810181811067ffffffffffffffff82111715610856576108556107ff565b5b80604052505050565b6000610869610679565b9050610875828261082e565b919050565b600067ffffffffffffffff821115610895576108946107ff565b5b61089e82610736565b9050602081019050919050565b82818337600083830152505050565b60006108cd6108c88461087a565b61085f565b9050828152602081018484840111156108e9576108e86107fa565b5b6108f48482856108ab565b509392505050565b600082601f830112610911576109106107f5565b5b81356109218482602086016108ba565b91505092915050565b60008060006060848603121561094357610942610683565b5b600084013567ffffffffffffffff81111561096157610960610688565b5b61096d868287016108fc565b935050602084013567ffffffffffffffff81111561098e5761098d610688565b5b61099a868287016108fc565b925050604084013567ffffffffffffffff8111156109bb576109ba610688565b5b6109c7868287016108fc565b9150509250925092565b6109da8161068d565b82525050565b60006020820190506109f560008301846109d1565b92915050565b7f4e487b7100000000000000000000000000000000000000000000000000000000600052602260045260246000fd5b60006002820490506001821680610a4257607f821691505b602082108103610a5557610a546109fb565b5b50919050565b7f5265636f6d6d656e646174696f6e20616c726561647920617070726f7665642e600082015250565b6000610a916020836106fb565b9150610a9c82610a5b565b602082019050919050565b60006020820190508181036000830152610ac081610a84565b9050919050565b7f4e487b7100000000000000000000000000000000000000000000000000000000600052601160045260246000fd5b6000610b018261068d565b91507fffffffffffffffffffffffffffffffffffffffffffffffffffffffffffffffff8203610b3357610b32610ac7565b5b600182019050919050565b60008190508160005260206000209050919050565b60006020601f8301049050919050565b600082821b905092915050565b600060088302610ba07fffffffffffffffffffffffffffffffffffffffffffffffffffffffffffffffff82610b63565b610baa8683610b63565b95508019841693508086168417925050509392505050565b6000819050919050565b6000610be7610be2610bdd8461068d565b610bc2565b61068d565b9050919050565b6000819050919050565b610c0183610bcc565b610c15610c0d82610bee565b848454610b70565b825550505050565b600090565b610c2a610c1d565b610c35818484610bf8565b505050565b5b81811015610c5957610c4e600082610c22565b600181019050610c3b565b5050565b601f821115610c9e57610c6f81610b3e565b610c7884610b53565b81016020851015610c87578190505b610c9b610c9385610b53565b830182610c3a565b50505b505050565b600082821c905092915050565b6000610cc160001984600802610ca3565b1980831691505092915050565b6000610cda8383610cb0565b9150826002028217905092915050565b610cf3826106f0565b67ffffffffffffffff811115610d0c57610d0b6107ff565b5b610d168254610a2a565b610d21828285610c5d565b600060209050601f831160018114610d545760008415610d42578287015190505b610d4c8582610cce565b865550610db4565b601f198416610d6286610b3e565b60005b82811015610d8a57848901518255600182019150602085019450602081019050610d65565b86831015610da75784890151610da3601f891682610cb0565b8355505b6001600288020188555050505b50505050505056fea2646970667358221220b45b6efc02e43d1bf772cfc0a0f2d68bbc62fa73204a3fb3dd6eb0a03e69bfc464736f6c63430008110033",
  "linkReferences": {},
  "deployedLinkReferences": {}
}